S01B00006275696C642F72656C656173652F7A69676265652E73333714
S21400400008100020917B000025C30000AD4D030082
S214004010AD4D03002DC3000035C30000AD4D0300B9
S214004020AD4D0300AD4D0300AD4D0300AD4D030097
S21400403039C3000048930400AD4D0300AD4D0300A6
S214004040AD4D0300AD4D0300AD4D0300A976000055
S214004050AD4D0300AD4D0300AD4D0300AD4D030067
S214004060AD4D0300AD4D030039C80000AD4D030053
S214004070AD4D0300AD4D0300AD4D0300AD4D030047
S214004080AD4D0300AD4D0300AD4D0300AD4D030037
S214004090AD4D0300AD4D0300AD4D0300AD4D030027
S2140040A0AD4D0300597F00003D7F0000AD4D03007D
S2140040B0AD4D0300AD4D0300AD4D03008917020062
S2140040C09FA903009BA90300ED0E0200B5A90300FB
S2140040D0A3A9030049170200A7A903007DFB01005E
S2140040E0C9170200AD4D0300AD4D0300AD4D0300F2
S2140040F0AD4D0300AD4D0300AD4D0300AD4D0300C7
S214004100AD4D0300AD4D0300AD4D0300AD4D0300B6
S214004110AD4D0300AD4D0300AD4D0300AD4D0300A6
S214004120AD4D0300AD4D0300AD4D0300AD4D030096
S208004130AD4D030089
S214004134F0B5114A114C124E00F00105E3695F0711
S21400414413D40DB9334213D103EA00078F4207D1C3
S2140041540B4A1A40002A14BF6FF001000020F0BD7D
S214004164013AEBD16FF00200F9E74FF0FF30F6E7C3
S2140041746FF00100F3E700BF80969800000003503C
S214004184020001000B4B70B5D96911F480310DD1D2
S21400419401244FF48072084E084DF46020462C64C7
S2140041A41A61FFF7C5FF3464EC6070BD6FF0010060
S2140041B4FBE700BF0000035000100350002003502C
S2140041C438B541F6713301220C4C0021E569E363EE
S2140041D40B4B05F48035DA600223606121202361ED
S2140041E4FFF7A6FF10B92120FFF7A2FF0122054B17
S2140041F4DA600DB10023E36338BD00BF000003504E
S214004204001003500020035070B5134C6061E3693E
S2140042145B071ED40E4656F8043B8D18A361AE42C7
S2140042240BD10423002121202361FFF781FF58B915
S214004234BDE870402120FFF77BBF08210846FFF742
S21400424477FF10B10423236170BD56F8043BA361C5
S214004254E5E74FF0FF30F7E7000003502DE9F84399
S214004264154641F67132164B8946DF69DA63012238
S214004274064603F58053DFF8508007F48037DA608B
S21400428455B9284601220F4BDA601FB10022A3F568
S2140042940053DA63BDE8F88306F5005404EA08041C
S2140042A4A41BAC4228BF2C46494622463046FFF79C
S2140042B4ABFF0028E6D12644A1442D1BE0E700BF4F
S2100042C4000003500020035000E0FFFF45
S2140042D02DE9F04F4FF0FD0BC9B09A460DF11B09C2
S2140042E09DF8503108AFCDF80C90CDF808B0019786
S2140042F0059303890446009383790E4690464188C9
S2140043008288407811F05EFF054650B10090A38881
S214004310002062883A4912F099FA284649B0BDE86A
S214004320F08F99F8000033F058FE38B12846A3887D
S2140043306288344912F08AFA8D25EEE75A463946E5
S21400434099F8000033F0F1FD8346002851D0529BC7
S2140043501BB1BDF84C3198424BD8002399F8009019
S2140043600793A9F14102012A5FFA8BF123D8384658
S2140043700139254ADFF898C05FFA81FE734513DBE2
S214004380059B04210792C3B907AF18221F489FED6B
S2140043901A7B02FB060420460A460830394684ED9E
S2140043A0027B16F0A9FF11E010F8011F01335140FF
S2140043B00CFB01F2E2E7059B33B123464A4638463A
S2140043C000960FF027FEA8E70829DED9B8F1000FFF
S2140043D001D088F80090BAF1000F01D0AAF800B01A
S2140043E0529B002B99D05A46184608A916F084FF0F
S2140043F093E7012591E700BF0000000000000000E1
S214004400DB3C0400103D0400C59D1C81801000208C
S21400441093010001000000002DE9F04F93B0CDE9B4
S2140044200A32DDE91C530E9353EC102BCDE908013C
S214004430104619468DED060B1E9E16F0E7F980B164
S214004440DDE906014FF0FF32C54B16F007FA40B91A
S214004450DDE906014FF0FF326FF4801316F0E0F945
S21400446070B1DDE908019DED060B0E9B1E96CDE9A9
S2140044701C53DDE90A3213B0BDE8F04F00F088B9EE
S2140044800022DDE90601002316F0CAF9002800F034
S2140044903381DDE906A303F1004BCBF30A5016F493
S2140044A08063A0F2FF3008BF06250F9315F0DCFEF0
S2140044B09BA3D3E9002315F041FF9BA3D3E9002378
S2140044C015F086FDCBF31304894644F07F518046F1
S2140044D00022A44B504641F4401115F077FD94A3FA
S2140044E0D3E9002315F02AFF02460B46404649460C
S2140044F015F06EFD16F0BCF9044615F0B5FE8EA359
S214004500D3E900238046894615F018FF0022964B13
S21400451015F05EFD16F0ACF989A3D3E90023074633
S2140045204946404615F00AFF80463846894615F04B
S2140045309BFE85A3D3E9002315F000FF02460B4639
S2140045404046494615F042FD02460B46CDE90C238F
S21400455015F0F4FEDDE90C23804689461046194620
S21400456015F036FD0022CDE91001804B4046494645
S21400457016F00EF800227E4B15F02AFD02460B467A
S2140045804046494616F004F800227A4B15F020FD06
S21400459002460B464046494615F0FAFFDDE90C2375
S2140045A08046894600204FF0804115F00FFD0246F8
S2140045B00B464046494615F00BFD02460B46DDE924
S2140045C0100115F0E5FF07F2FF3700226A4B15F0E1
S2140045D0FFFC00223B0515F0B1FE52465B468046C6
S2140045E0894616F03BF9002840F08980CDE90C8911
S2140045F004F16303C62B8CBF0527042731051BD5A2
S21400460053A3D3E900235046594616F01DF9002857
S2140046107FD051A3D3E900235046594616F000F93F
S214004620002876D00027A542C6BF2C1B04F1FF3514
S21400463000253C4646F480660E9B9F422CBF4FF0FA
S2140046400008A3EB070816F0020903D0002F18BFD6
S2140046504FF000083CB1DDE90C235046594615F0F2
S21400466097FF82468B46DDE906010022002316F0FE
S214004670D7F810B10BF100439B46DDE9080126F49C
S2140046800063CDE90183DDE90A324BEC10AB0095FF
S21400469000F07EF802465FB3DDE9091316F0200F3E
S2140046A000F10105089E0CBF65204520B047DDE9F6
S2140046B008010523002205930A23002CCDE90232C7
S2140046C007F1FF374FEAD473B8BF64422A46019316
S2140046D004970A9B009435F0DAFA0246B9F1000F07
S2140046E006D00B9BC41A0B9B1A190E9BA34245D8E7
S2140046F0104613B0BDE8F08FDDE906ABCDE600222C
S214004700404649461A4B15F043FF013CCDE90C01E3
S2140047106EE7002D90D00F9B002B8DD0013D8BE7D0
S214004720FB799F501344D33FB3C8608B288AC63F9B
S21400473061436F63A787D23F71A379094F930A40FD
S2140047401655B5BBB16B0240EF39FAFE422EE63F76
S2140047502D431CEBE2361A3F0000000080842E41F9
S214004760FFFFEF7F0000F83F0000E03F00002C4016
S21400477000002440000018400000F03F2020DDE943
S2140047800913089DA8470134ADE700BF00000000EC
S2140047902DE9F04F5BEC10AB97B0CDE90501DDE9F4
S2140047A02058CDE90723504652465B465946229F7D
S2140047B016F02CF870B90323CDE902870193AA4BB3
S2140047C00093DDE90501DDE9072335F092F917B01E
S2140047D0BDE8F08F4FF0FF326FF480135046594615
S2140047E016F01EF828B10423CDE9028701939F4BEB
S2140047F0E6E74FF0FF32504659469D4B16F02EF82E
S21400480068B19C4A07F00403002B08BF03229A4BAA
S2140048101CBF13460422CDE902870192D0E750461A
S2140048208DA3D3E90023594616F018F838B98CA39F
S214004830D3E900235046594615F0F2FF68B1DDE98A
S2140048400723DDE905014BEC10ABCDE92187209568
S21400485017B0BDE8F04FFFF7DFBD0022002350463B
S214004860594615F0DDFF002800F091805B46524661
S2140048700020002115F0AAFB012382468B460993EF
S21400488017F4806400F08580092D40F285800024AE
S21400489030210EABA5F109020134202C03F8011BD0
S2140048A0A5EB040901D09442F6D15946504615F0BE
S2140048B0DFFF724B054603EBC90393ED007B8DEDDE
S2140048C00A7B15F0D1FC02460B465046594615F0B9
S2140048D07DFBDDE90A2315F031FD02460B46CDE9E6
S2140048E00C2315F0EDFF064615F0AEFC02460B460F
S2140048F0DDE90C0115F06AFB02460B46CDE90C23F8
S21400490000225F4B15F0AAFF002848D0013630463B
S21400491015F09AFC02460B46DDE90A0115F08AFFFF
S21400492008B100260135B9F1000F45D1284615F02B
S2140049309BFC02460B465046594615F047FB0022A4
S2140049404F4B15F06DFF10B9E90700D501350A2168
S2140049500EAB1A19202C0AD095FBF1F001FB10556E
S214004960303502F8015B013405460028F2D107F025
S2140049700302012A55D1B8F1000F52D0099A12B994
S21400498017F00C0F01D008F1FF38302240E00990F4
S21400499076E74FF0060988E7A946002485E7002257
S2140049A0DDE90C01364B15F03BFF0028BBD10EB1FC
S2140049B0F007B8D50136B6E70A210EAB1A19202C37
S2140049C00DD0B6FBF1F001FB1063092E03F13003A6
S2140049D009F1FF3904F1010402F8013B11D8302136
S2140049E0A1440EAA202CB2D04C4504F101030AD1F2
S2140049F004F158020DEB02042E2204F8202C1C466B
S214004A00A5E70646DBE7A1541C46EBE71A5501343A
S214004A10444506D2202CF9D1CDE9028701940EAB8D
S214004A20CEE6202CF8D0099B3BB12D2204F158038A
S214004A306B4403F8202C0134EEE77A0704D504F122
S214004A4058032B226B44F4E73B07E5D504F15803E3
S214004A5020226B44EDE700BF0000000065CDCD418D
S214004A600000000065CDCDC1CA5A0400CE5A04002D
S214004A70FFFFEF7FC15A0400C65A040080A204005C
S214004A800000E03F0000000070B58EB02C22002130
S214004A9003A816F0A1FA64234FF002320893CDE97A
S214004AA005230B2301218DF834305B4B8DF8101055
S214004AB01D880D4040F0A980084639F0A7FB0A2261
S214004AC0564B574C1A704FF42873ADF812304FF00F
S214004AD0FF332360534B54491B8820460B82534BAD
S214004AE0534A1B68CD828B61524B0D621B884B82EA
S214004AF0514B1B68CB611CF0DDFE20B14FF41B71DF
S214004B004E483AF0C4FC0521206835F0A9FA20B1D9
S214004B1040F27D2149483AF0BAFC206815F012FAB6
S214004B20474B2068196835F05EFB0C2539F0D6FF38
S214004B306843099039F0D2FF68430DEB05010790F2
S214004B40206817F00BF920B140F295213B483AF067
S214004B509EFC25681FF058FA00220146284635F0CC
S214004B60BAFB20B140F2972134483AF090FC40F26C
S214004B700353344D344E2B80052396F90000AB705A
S214004B807F2801D11CF08CFF3378EB7039F0A6FF3C
S214004B9000EB80008000A88039F0A0FF0023C00052
S214004BA04FF0FF31E880AB604FF0FF3018A3D3E939
S214004BB0002339F07DFC2549206835F045FB206848
S214004BC002A935F061FF20B14FF434711B483AF06A
S214004BD05EFC042220680DEB020135F0D9FA0428A9
S214004BE004D040F2D72115483AF051FC01A9012023
S214004BF034F0E4FE07F0DAFB01201DF0E3FB30F0B2
S214004C00CDFE1DF009FC1CF0E3FE0EB070BD00BF2B
S214004C100A0020FF420300001A5E00207165002093
S214004C2040560020B2BB04002C6C0020B8BB040029
S214004C3035E20300B0BB0400B4BB0400F9910400E5
S214004C407C690020345600204A6F0020A9E2030049
S214004C500348044B834202D0034B03B11847704706
S214004C607C6F00207C6F002000000000064B074988
S214004C70C91A891048BF0131491003D0044B0BB143
S214004C8001481847704700BF7C6F00207C6F0020EB
S214004C900000000010B5064C237843B9FFF7D8FF94
S214004CA0044B13B10448AFF300800123237010BDFA
S214004CB0681600200000000058DF040008B5044B0A
S214004CC01BB104490448AFF30080BDE80840CDE7B7
S214004CD0000000006C16002058DF0400A3F5803AA0
S214004CE0704700BF154B002B08BF114B9D46FFF7C2
S214004CF0F5FF00218B460F461148124A121A16F08D
S214004D006BF90C4B002B00D098470B4B002B00D0B8
S214004D1098470020002104000D000B4816F0A2FC66
S214004D2016F032F9200029002FF0ACFC16F088FCB3
S214004D30000008000000000000000000081000202E
S214004D4008100020D4650020CDB6010007B501216B
S214004D5020200DF1070201F043F850B10121202078
S214004D600DF107028DF8071001F04AF803B05DF860
S214004D7004FB9DF807100129F8D00122084815F019
S214004D8019F801210DF1070220208DF8071001F017
S214004D9037F82FF0F9FB4FF4FA6000F06BFEE5E70A
S214004DA0C8F8030038B501F0B3F9012805D001F0C2
S214004DB0AFF9022801D001F0D1F9064D2B783BB9A6
S214004DC001F0A6F90128044602D12FF052FC2C70FF
S214004DD038BD00BF065F002010B5044600882FF0DF
S214004DE0A7FBA37884F84400834202BF0123E37044
S214004DF02371074B04F11C00C4E9073401F046F8A0
S214004E00224620880349BDE8104000F083BF00BF5B
S214004E10C74203009142030070B5C37804460D46AE
S214004E201646002B34D1D1B1214814F0C3FF01231C
S214004E30E370E36CA6600BB1E06D9847E368F61A82
S214004E4063699E4221D2217E1A480131C9B2217679
S214004E5014F0B0FFA36D13B1217EE06D9847E570A6
S214004E602FF0A5FB15B3237903BBA268238A801A0B
S214004E7083421BD801231048237114F09BFF236D37
S214004E80A3B1E06DBDE87040184701232376E6E73E
S214004E900029E4D1094814F08DFF636DE660E570E3
S214004EA02571002BDBD0E06D9847D8E770BD00BFBA
S214004EB0F0F8030001F903002FF903001CF90300C2
S214004EC070B51E46838804460D46C18002810BB12C
S214004ED0868070BD817800882FF016FA0123E37073
S214004EE0064BA680C4E903340C34204600F0CEFFFF
S214004EF029462046BDE870402FF050BB1343030000
S214004F0010B501790446B1FA81F1008849092FF0FD
S214004F1072FA21796088B1FA81F149092FF06BFAAB
S214004F20034B1A68A24204BF00221A6010BD00BFDD
S214004F3084160020F8B543790446ABB100880E4FBE
S214004F400E4E3B6804F1080513B10D4B1B786BB190
S214004F5021792FF050FA0B4B3C6028463178A3603D
S214004F60BDE8F8402FF01ABB4088E8E7064814F082
S214004F7021FF064BF1E700BF84160020EA6E0020F2
S214004F80075F0020014F000045F90300354F000081
S214004F9010B50446E0B10F4814F00CFF012363710E
S214004FA0A37953B9217920882FF025FA236B7BB19A
S214004FB0606B0121BDE8104018472046FFF7A0FFB0
S214004FC004F108002FF0EFFA2046FFF7B3FFEDE7F5
S214004FD010BD00BF7BF9030010B50446F8B11048B9
S214004FE014F0E8FE00236371A3796BB92179208859
S214004FF0B1FA81F149092FF0FEF9236B7BB1606BA2
S2140050000021BDE8104018472046FFF779FF04F15D
S21400501008002FF0C8FA2046FFF78CFFEDE710BD1A
S21400502086F9030010B5044668B1074814F0C2FEBE
S214005030637920461BB1BDE81040FFF7CDBFBDE841
S2140050401040FFF7A5BF10BD92F9030010B50E4C37
S2140050500E48214614F0AEFE82210D4814F0AAFE3A
S21400506082210220A21E00F0CBFE014630B134F8A9
S214005070022C0848BDE8104014F09CBE0648BDE867
S214005080104014F097BE00BF92570020A1F903000D
S214005090BCF90300C7F903000BFA030038B5114C3E
S2140050A082212246022000F09BFEA51C014688B104
S2140050B022880D4814F07EFE2A460C4B03F1380178
S2140050C053F8040B8B4242F8040BF9D11B7813708B
S2140050D03823238035F8021C054A0648BDE83840C8
S2140050E014F068BE9057002016FA030096FA0300E4
S2140050F09257002074FA0300034B1B781BB18B42B7
S21400510001D82FF041BA7047EB6E002010B5044668
S21400511001460E4814F04EFE012C11D10C4B0D48E2
S2140051201A884FF6FF739A421EBF0022094B5A7424
S2140051302FF047F901F0DAFEBDE8104001F0ACBDF3
S2140051400448BDE810402FF03EB900BFCFFA030078
S2140051509C6E00200869002070B500241A4D1B4E76
S2140051603378A3421BDC0024194D1A4E3378A34231
S2140051701BDC0024184D194E3378A3421BDC00F0CC
S214005180C7FF012816481CD12FF01BF901F0AEFE10
S21400519001F082FDBDE87040124800F0D9BF2846F5
S2140051A0FFF71AFE01346035DAE728462FF0EFF8ED
S2140051B001343435DAE728462FF022F90134383541
S2140051C0DAE72FF000F9E5E7742300200D5F0020F2
S2140051D0942700200E5F0020442100200C5F002052
S2140051E0086900200D5100002DE9F04F87B0FFF749
S2140051F055FFBC4B05A805932FF026F9054615F07C
S214005200E7FDB94CC2B21F2A627004D9B74814F041
S214005210D1FD00F023FC2946A01C16F06DF805A869
S2140052202FF012F9054615F0D3FDC2B21F2A84F8F6
S214005230212001D9AE48EAE7294604F1220016F0FB
S2140052405BF805A82FF000F93226044600272578DB
S214005250002D40F09480A74CFFF77EFF2378DFF800
S214005260D4A2DFF8D482A44E00939AF8003098F8BF
S21400527000203178A14814F09DFD327898F800108F
S2140052809AF80000531803449D4F20782C46034498
S2140052903846DBB2AA4200F3EE82012B38BF012368
S2140052A0DFF864B202935A4600235D464FF48271DB
S2140052B04FF6FF7402980133834213705180948036
S2140052C002F10C02F6DB8F4B8F498748AB6000F08B
S2140052D0FBFFE879AB6800EB400003EB800000F0D2
S2140052E0C9FDEB790133EB71884B1B88A34203D0D1
S2140052F08549874801F0EAF84FF00009814C32787A
S2140053004A4500F3E18200274FF00C09814ADFF896
S214005310F8B198F800003178B84200F3EA824718EE
S2140053200C21002501FB07B19AF800009423A8423F
S214005330794A00F3FC820C2500274FF4827A98F80D
S21400534000303678DFF8F4811E44064405FB06B5C7
S214005350DFF8ECB1674B1B78BB4200F3FB82029987
S214005360694800F015FE059B5E491A468B4240F0E0
S21400537008836A4807B0BDE8F04F14F01BBD532DF4
S2140053800FD163784C2B40F05B81A378502B40F014
S21400539057810122624B1A7005A82FF055F8044673
S2140053A055E74C2D0ED16378502B40F0CB80A37878
S2140053B0303B092B00F2C680A01C2FF052F8594B48
S2140053C01870E9E7442D13D16378303B092BE3D8F6
S2140053D0601C2FF046F8544B544A1978002386B2C6
S2140053E0994202F16002D7DD22F8466C0133F7E7F6
S2140053F0422D0BD16378542B55D1A01C00F0D8FC5D
S214005400424B188018462EF020FFC5E7582D33D89B
S214005410412DC1D9433D152DBED801A353F825F023
S214005420E357000099530000995300009953000079
S21400543099530000995300009355000099530000BB
S21400544099530000455500008B5400009953000006
S214005450995300009953000099530000C556000068
S21400546041560000995300009953000099530000DC
S214005470995300003B570000692D8DD1601C2EF01B
S214005480F0FF80B22FF07CF886E71B4B01201978DE
S21400549000231B4A994202F1A8027FF77DAF02F86B
S2140054A0A60C0133F6E7601C00F082FC0546E01C03
S2140054B02FF04FF80121024628462FF006F860210B
S2140054C019481A4C03785943621865524FF4FA612A
S2140054D011824FF4487151611549568311650133A5
S2140054E0037059E7925700201C680020EEFA03006C
S2140054F005FB0300085F00200B5F002015FB030080
S214005500981E002050170020D81600209C6E002001
S21400551088160020981D0020DC1B002065FB030079
S214005520075F0020EA6E00200D5F00207423002035
S21400553033440300095F00200A5F00203821002062
S214005540D0180020601C00F033FC00224FF0340816
S2140055508146CD4F11462EF0B8FF3878CB4D08FB6C
S21400556000F325F80390EA18E3781046693B18BF65
S214005570012393702EF00BFF0021C54A3B78516043
S214005580012103FB08550B443B7015600F46117450
S21400559002E7601C00F00CFC0022114681462EF04B
S2140055A094FF3422B84DDFF8E482287802FB00F33B
S2140055B028F8039008EB0301E3780846693B18BF18
S2140055C001238B702EF0E3FEB24A00231046916B47
S2140055D031BB00EB831034232A7802FB03838363FA
S2140055E0AD4A00231046D2F8A410F9B9A82202FB4F
S2140055F0030034232A7802FB0383C0F8A4305FB983
S214005600A34A3B46114652F8040BA8B93422287820
S21400561000FB028241F823202B7801332B70BBE677
S2140056200133042B02F14002D1D1D9E70133042B18
S21400563002F1A802D7D1E2E70133042BE3D1EBE76E
S214005640601C00F0B5FB8046E01C2EF082FF0121B6
S214005650024640462EF039FF60219048904D027871
S214005660DFF858C251436B1825F801804FF4487193
S214005670198259618B495E839965E178A82464296B
S21400568004BF012199709CF80030DFF80CE25C43FF
S2140056900EEB04010EF804304FF400744C80032423
S2140056A00C718C7102EB420405EB44153224013375
S2140056B0DBB201324B718D6081F8A04002708CF82D
S2140056C0003069E6601C00F073FB00224FF0380AD9
S2140056D08146DFF8E08111462EF0F7FE98F800309C
S2140056E0714D0AFB03F325F803904FF00109EA1801
S2140056F082F80490E37873B1E01C00F059FB0022B6
S214005700044611462EF0E1FE98F800300AFB0353DB
S2140057105C8083F8069065485E4A03789901535486
S21400572098F8001002EB8314C1EBC10205EBC2052A
S2140057304A1C656388F80020D1E6601C00F038FB40
S2140057408046E01C00F034FB0546601D2EF001FF8D
S21400575004460246012140462EF0B7FE2246284661
S21400576001212EF0B2FE60204FF4487CDFF82CE1D9
S2140057704B4A9EF8003000FB03F422F80480DFF862
S21400578024811119A1F810C0C1F814C04E83C1F8C5
S2140057905880591CC9B248431418A4F810C0C4F85D
S2140057A014C06683C4F8588094241552404D981C43
S2140057B08EF800002878DFF808C1444303EB430363
S2140057C001EB41010CEB040E02EB431302EB41121A
S2140057D00CF80400CEF80430CEF80820013028700B
S2140057E0DAE5601C00F0E4FA8046E01C00F0E0FA1F
S2140057F000220546114640462EF067FE0022382459
S214005800114628462EF061FE2A48274A03784FF0B4
S214005810000E04FB03FC22F80C804FF0010802EB9C
S2140058200C0181F806E081F8048003EB0801C9B298
S2140058304C4302EB040C15539C1C04704FF482740A
S2140058401D4D8CF806E028788CF804804443DFF879
S21400585074C0C3EBC303C1EBC1010CEB040E02EB37
S214005860C30302EBC1020CF80400CEF80430CEF8F5
S21400587008204044B3E790F805C001358C4584BF46
S21400588004714471A83005E50E5F002094270020BF
S21400589008690020981D0020981E00200D5F00203B
S2140058A074230020F9500000442100200A5F0020E5
S2140058B0095F00200C5F0020085F00200B5F0020BF
S2140058C0DC1B0020D0180020B9F1000F07D01BF811
S2140058D0052C02EB420204EB8204CBF80840594642
S2140058E0384601F0D7FC09F10109A8370BF10C0B7B
S2140058F005E579180AD0481E09FB00B0C07900EB10
S214005900400004EB800409FB01B08460104609FBEC
S2140059100151039201F07CFA31781E48394409FBA4
S214005920015101F09FF9039A01374032F1E4FD423C
S21400593018BF11F8050C03911EBF00EB400004EBE6
S21400594080048C6003FB052001F0A4F80399013560
S2140059500C31E9E4F74218BF15F8053C29461CBF90
S21400596003EB430304EB83040AFB07B018BFAC60E9
S21400597000F042FF2946404601F074F901370C3525
S214005980E8E413F8011D00297FF4EEAC3B2102F891
S214005990011CE9E43821002007B5012121200DF182
S2140059A0070200F01DFA18B99DF80720024B1A707E
S2140059B003B05DF804FB00BFEB6E002007B5064B96
S2140059C08DF80700187001210DF10702212000F064
S2140059D017FA03B05DF804FBEB6E002007B5022152
S2140059E001200DF1060200F0FBF938B9044814F066
S2140059F0E1F9BDF8060003B05DF804FB0020FAE705
S214005A0082FB030007B50221ADF806000DF1060281
S214005A10012000F0F5F9014610B1034814F0CAF968
S214005A2003B05DF804FB00BFA3FB030010B5FFF74F
S214005A30D5FF04460146074814F0BCF90121064884
S214005A4014F0B8F924B9BDE810400120FFF7DABF1A
S214005A5010BD00BFD3FB0300E5FB030008B50448F8
S214005A6014F0A8F900F0DCF92EF08EFD2EF089FD7A
S214005A70FBFB030038B50446084D094B28462B604F
S214005A8000F004FA002C18BF21462846BDE838402E
S214005A9008BF4FF496712EF081BD00BF98280020F5
S214005AA0814403002DE9F043384D91B008AC074619
S214005AB0894690460FCD0FC495E80F00002684E86F
S214005AC00F0001250323324C3248CDE90366CDE9A9
S214005AD005668DF80E300796029539F081FC2E4843
S214005AE039F07EFC32462D4920468DF8176004F0CA
S214005AF0F9FC334632462A498DF8190000902046B4
S214005B008DF82390CDF82C808DF8216004F004FDEC
S214005B100A9020468DF8097004F066FC204608AA14
S214005B2005A904F01FFD02AA204603A92FF092FE45
S214005B304FF400721B4B5A62194BE560626A92057D
S214005B4010D46BB94FF40072164B11485A6204F029
S214005B504BFC114839F047FC002011B0BDE8F0833B
S214005B60013BEBE7002BEDD0094908A82FF0A5FE76
S214005B704FF400720B4B06485A6204F035FC064898
S214005B8039F031FCBDF82000E7E700BF00930400C1
S214005B900040005AA8950400A495040080841E00C6
S214005BA040420F000060005A0122034B1870034B5E
S214005BB01980034B1A707047105F0020A46E0020F7
S214005BC00F5F0020F8B5454B1B780BB90020F8BDD9
S214005BD0434B1B78012B03D1BDE8F8402EF053BC95
S214005BE0404B1C884FF6FF739C42EFD03E4839F07E
S214005BF0F7FB0023260AE4B21A462146304604F094
S214005C00B3FB012E354604F0010335D015D9B51E79
S214005C10012DDBD8002B0BBF4FF480754FF080753D
S214005C204FF470614FF070610BBF01274FF480375F
S214005C300F204FF470202D4B11E0002B0BBF4FF4BC
S214005C4080754FF080754FF470614FF070610BBF38
S214005C5001274FF480370F204FF47020244B1A682A
S214005C6002401CD0BA421AD01A680A4032D11A68CA
S214005C7022EA01022A4316E0002B0BBF4FF4807580
S214005C804FF080754FF470614FF070610BBF0127C5
S214005C904FF480370F204FF47020164BDFE71A685A
S214005CA022EA00023A431A602EF0EDFB0546002871
S214005CB08CD0083644EA06102A460321C0B2FFF705
S214005CC0F1FE40F6FF73684300F2FF70B0FBF3F09E
S214005CD080B27CE795427FF479AFC8E70F5F00207B
S214005CE0105F0020A46E0020A895040028C303506F
S214005CF020C3035024C3035010B5044C237823B9A3
S214005D00034839F06DFB0123237010BD125F00209D
S214005D10A89504002DE9F0431F4C85B00746884639
S214005D209146FFF7E9FF23781BB901F0CDFF012369
S214005D3023707BBAADF80C3030220023174E02FBDE
S214005D4003F4315DA51901BB012333554FF0FF3332
S214005D5004F1100012493044AB606F80C5F804802F
S214005D60C5F80C9009F042FA04F108010422314407
S214005D700C4B009503A802F07DF8A96802460A4875
S214005D8014F018F805B0BDE8F0830133102BD6D117
S214005D90064814F00FF8F5E7115F0020C028002031
S214005DA0AB440300BD44030008FC030036FC0300BC
S214005DB080B10278A2F14103032B0BD8407830382B
S214005DC0C0B2082806D8054B134413F8413C40EAF5
S214005DD0032070474FF6FF70704700BF2093040003
S214005DE008B50B4642B101460448006803F086F940
S214005DF0BDE808402EF0BEBB022008BD7469002036
S214005E0008B50B4642B101460448006803F0FEFAA6
S214005E10BDE808402EF0AEBB022008BD7469002025
S214005E20F0B50026124F8DB0FF2300930A223346AA
S214005E30386802A92FF0CBFAC0B102AB1D4603EBBF
S214005E40800404E055F8043BB34228BF5E1CAC4215
S214005E503868E9D9296803F05FFC0028F2D02D28BD
S214005E60F0D00DB0BDE8F0402EF084BB0DB0F0BD14
S214005E707469002028B1034B0360034B4360002382
S214005E8083607047190000031C690020FF2307B5D4
S214005E900021044A0093083009F02CF903B05DF89D
S214005EA004FB00BF974503000B46044902460868FA
S214005EB00349097808B12EF081BB7047CC2B00202F
S214005EC0145F0020F7B50C4618B12921194839F09F
S214005ED0DEFA246823685E795F8830463946FFF725
S214005EE0E3FFF0B18568E5B1A089227D394690428E
S214005EF091BF0020801AA36880B294BF03469B1807
S214005F00E27C00903046A8470138032803D8DFE833
S214005F1000F0080F0B0D0024204632F0C8FD204686
S214005F2000E0812003B0F0BD8024F5E79324F3E77A
S214005F308724F1E75EFC0300F8B515460D4A0446D3
S214005F4010680D4A0B46117850B122462EF036FBEB
S214005F50034628B100210C27C678B14201DB002099
S214005F60F8BD07FB01F45A681019125BAA42F7D075
S214005F700131F2E7CC2B0020145F002008B5034B5C
S214005F801B6803B19847002008BD00BFC82B00203F
S214005F902DE9F74F04460D460026454B454F186041
S214005FA0454B197033010021F85C01360FF0F8FEFE
S214005FB00C2EF7D10C2D28BF0C254FF000090195AB
S214005FC03C4EDFF800A13D4DDFF8FC80019B4B45C1
S214005FD002DC03B0BDE8F08F23784FF0000B33707F
S214005FE063887380A388B380A379C6F80880B371EA
S214005FF0E379C8F8005088F804304FF00003A7682B
S214006000A8F80630E3795B450ADC012116F8100B88
S2140060100FF0C6FE08F1080809F101090C34D5E7AF
S2140060204FF0000338886B812880FB784FF0000C17
S2140060302B81BA78C5F804A0002A00920CBF8022F3
S21400604040222A7379680AF10C02634513DC03EBDD
S21400605043030AEB830ABB6843B1009A4FF6FF710D
S214006060B2FA82F2164B520932F0B1FC14350BF13B
S214006070010B0C37C6E7B1F800E00CF1010C22F872
S2140060800CEC91F802E00C3202F816EC91F804E001
S2140060900C3102F815EC11F809ECBEF1010F14BF33
S2140060A04FF0100E4FF0110E02F814ECCDE700BFC3
S2140060B0CC2B002094420020145F0020D03100201A
S2140060C0C55E0000D02B002050340020014B186025
S2140060D0704700BFC42B002070B5128805460E46D8
S2140060E0FFF72AFF044670B102790499806814F01D
S2140060F0C5FF064B1B680BB9002070BD314628460D
S21400610022889847F8E78620F7E700BFC42B0020D0
S21400611008B50EF0E1FE022806D0012806D0044B92
S21400612018784000C0B208BD0120FCE70220FAE75C
S214006130135F0020054B10B51C682CB1FFF7E8FF75
S2140061402346BDE81040184710BD00BFC02B0020F6
S214006150014B1860704700BFC02B0020034B1A7815
S2140061601AB901221A700AF0BDBE7047135F0020EC
S2140061700022024B1A70FFF7DDBF00BF135F00203E
S21400618037B50446002836D00EF0A6FE022834D1D5
S214006190608933F009F8E079237A003818BF0120C7
S2140061A0012B637A08BF40F008000BB140F01000E6
S2140061B063890BB140F00400257CA188A2790DB15B
S2140061C0E36893B90F4B10F0C7F92178084610F032
S2140061D03FFA32F0F5FA044610F0F8F97CB10028E0
S2140061E00CBF0020032003B030BDCDE90035064BC0
S2140061F010F0B2F9E9E70220F5E70120F3E72046C0
S214006200F1E700BFF4490400F718040008B50CF0E5
S214006210C7FF014630B1044813F0CCFDBDE8084086
S2140062200DF062BB08BD00BFD0FC0300034B044A60
S2140062305B7C012103201370FFF7E2BD0869002094
S214006240155F002010B50446FFF7F0FFB4F57F4F4A
S2140062500BD100240F4B1A8813449C70FEF7F6FEF1
S2140062602046BDE81040FFF705BC4FF601739C4280
S21400627004D1BDE8104008482EF08BB84FF60273E4
S2140062809C4205D1BDE81040044B1878FFF796BB3A
S21400629010BD00BF9057002008690020EB6E00205C
S2140062A010B5074C012122460320FFF799FD28B9B7
S2140062B02378044A003B18BF0123537410BD00BF67
S2140062C0155F002008690020F8B5564B564C1A8812
S2140062D04FF6FF739A4218BF03234FF0080218BF09
S2140062E02370524B30251A7032225A70DA70DA71E7
S2140062F034229D705D7139251A724FF400129D711B
S2140063004B4D3626C5644B4D426405654A4D012209
S21400631085654A4D1E71C565494D86184566494DC9
S214006320C6678566484D494E0567494D80F8482042
S2140063304567202580F8785080F8845000F12105C4
S214006340C0F88850434D80F85420C0F88C5080F830
S214006350602080F86C20C0F8806080F89020C0F83C
S2140063609440C0F8B8303C4B3C4CC0F8BC300223DC
S214006370C0F898403A4C80F8C030C0F8A4400F24CB
S214006380384B80F8A840C0F8C430374B374CC0F8BC
S214006390C8308223C0F8AC40354C80F8CC30C0F80A
S2140063A0B0400924334B344DC0F8D030334B80F81E
S2140063B0B440C0F8D4302C7C314B80F89C20C0F818
S2140063C0A00080F8D820C0F8DC3044B12D4B80F80F
S2140063D0E420C0F8E03005F11103C0F8E8304FF0D3
S2140063E0000CCA798E6802EB42039F00443006EB2D
S2140063F0830326F807C0586001200D349870DC70BF
S2140064001318CB71FFF7C8FAFFF74AFFFFF780FEB5
S214006410012806D12B7C23B1BDE8F84016482DF0A4
S214006420B8BFF8BD9C6E0020EC6E0020165F002002
S2140064303993040001002000389304000200200075
S2140064403793040003002000369304000500420042
S2140064500400420007003000FDFF2100120010017A
S214006460004042003493040000FF440124930400DB
S21400647006004200905700200869002002FF200115
S214006480EB6E002001FF100113B504460D482DF0F9
S214006490E7FE6422C0F30F43637083B2B3FBF2F3EC
S2140064A0A0782370202201212EF0AAF8A0782122BD
S2140064B001212EF0A5F80449201D02B0BDE81040C9
S2140064C02EF06CB89C6E0020E09304000B7870B53C
S2140064D083704CF61E0303804FF02013C362012323
S2140064E080F8303080F83C30C3180364124B044602
S2140064F043640223114A80F84830114B8263C36418
S2140065004063CA798D6802EB420305EB830004F111
S2140065102C0646600B4E45F8236000238360531C10
S214006520CB71094B201DC4E90134FFF7AFFC2046B0
S214006530BDE87040FFF7A8BFFDFF21002100200046
S2140065403A9304000100010389640000F8B54FF691
S214006550FF73994204460E4609D0B0F87E308B424F
S21400656005D04FF6FE729142037B01D10BB9F8BD00
S214006570EBB120462EF00DF920462EF0CDF84FF662
S214006580FE739E4213D1A068FEF726FD6068FEF7F4
S21400659023FD2EF00CF800232373A0674FF47F42F0
S2140065A060784FF48171BDE8F8402EF029B8B4F851
S2140065B07E50237BB5422CBF02250125AB4218D066
S2140065C0D4E90107637B13B13B4607461846012D05
S2140065D041D1FEF7DDFC3846FEF7FEFC2DF0E7FF66
S2140065E04FF47F42A0674FF48171607825732EF0D8
S2140065F007F8E389A4F8806004F1B4060BB9238A8F
S2140066007BB3B4F87E30A4F888302DF0D0FF012D8F
S214006610B4F87E30B4F88020C4F8840038D1D31A99
S214006620022DE18903D1208A002818BF014659436C
S2140066306423594342F21073B1FBF3F10AB19A4254
S21400664001D101F6B83130462DF0A8FF2046BDE84E
S214006650F8402EF0A9B8FEF7BFFC3846FEF798FCC7
S214006660BCE742F21072012D08BF1346A4F87E3034
S21400667014BF0023642360784FF48171A375082249
S2140066802DF0BEFF3046BDE8F84002492DF086BF2B
S2140066909B1AC5E7E0930400094A437B0C2113705C
S2140066A0C3895380038A9380438AD380838A138165
S2140066B0B0F87E30538100781130C0B2FFF7A0BB2F
S2140066C01258002038B5044600780D4D11302A4681
S2140066D00C21C0B2FFF784FB80B92B782046637389
S2140066E06B88E381AB882382EB8863822B89A38245
S2140066F06B89A4F87E302DF0D9FFA07538BD00BF99
S21400670012580020024B53F820002EF0F8B800BFB5
S214006710B034002010B50446052923D8DFE801F080
S21400672003080C22221020462EF0DEF8002010BDB2
S21400673020462EF0DDF8F9E720462EF0DCF8F5E7E7
S214006740E18911B9218A0029F0D082B17BB1117894
S21400675064290ED820462DF0C6FF014620462EF0AE
S214006760B4F8E3E7044813F025FB0120DFE7032035
S214006770DDE70220DBE700BFFDFC030010B4054C9C
S214006780114654F820001A46BDF804305DF8044B54
S214006790FFF7C0BFB034002000234FF0967210B54C
S2140067A0C0E903233222044682750F4A8382C267F9
S2140067B0C0F88430A0F888308367A0F880308C302A
S2140067C0FFF764FB094B04F1B400C4E92334FFF778
S2140067D05DFB074B04F1DC00C4E92D34FFF756FBE4
S2140067E0044BC4E9373410BDFFFF8813D9480300B3
S2140067F0E5470300CD47030038B504460B78294A21
S21400680043700D4642F82300FFF7C6FF2046FFF709
S21400681059FF4FF44013A3610123237784F82830EF
S21400682084F8343084F8403004F10D0363641E4B62
S2140068301E4AA364022322621D4A84F84C30626218
S21400684004F11602E2621B4A84F85830226304F10F
S2140068500C02A263184A84F86430E26304F10E0264
S2140068602265164A84F87030626504F11002E2650B
S214006870134A04F11403226604F11202A266114AB6
S2140068806367E266EA79A86802EB420300EB8301DD
S21400689018344C600C4C40F823400C4B8B60531C57
S2140068A0EB7138BDB034002002FF21011F5F0020CD
S2140068B00800200000FF300001FF100103FF210147
S2140068C004FF210105FF2101020101087D67000088
S2140068D010B44FF48274427B0C48013A012904FB41
S2140068E0020006D0022908D059B95DF8044B2DF0F5
S2140068F0FBBF5DF8044B2DF0FBBF5DF8044B2DF09D
S214006900FABF03485DF8044B13F054BAD0180020C1
S21400691019FD0300B0F85C302DE9F0418B420446C7
S2140069200E4639D0437B077C93B31C4A12789A42B2
S2140069302ED34FF482751A4A013B05FB032390F8C9
S2140069400F801B7B42462DF0F3FFB845054601D16C
S214006950FF281FD13A463146204694F890302DF055
S214006960E7FF2F460546552212216078A4F85C60A2
S2140069702DF046FEFF2F03D039462046FFF7A8FF2E
S214006980FF2D09D029462046BDE8F0412EF010B86C
S214006990FF25DFE70746E6E7BDE8F081085F002051
S2140069A0D018002041688268C978D27849B112B1FF
S2140069B00321FFF7AFBF837B002B0CBF0121022111
S2140069C0F7E72AB1837B002B0CBF02210121F0E7F9
S2140069D0014813F0EFB900BF2AFD0300037BD3B1D3
S2140069E04368DA7812B18268D278A2B91B7933B1DB
S2140069F0837B002B0CBF04210521FFF78BBF836828
S214006A001B792BB1837B002B0CBF05210421F4E7F7
S214006A10014813F0CFB970475CFD0300084A437B7A
S214006A2005211370837B5370C37B9370037CD370F4
S214006A30037B137100780E30C0B2FFF7E1B900BFD8
S214006A40205F002038B5044600780C4D0E302A46EC
S214006A500521C0B2FFF7C4F920B1BDE838400848A8
S214006A6013F0A8B92B7863736B78A373AB78E373D2
S214006A70EB7823742B79237338BD00BF205F00208A
S214006A8098FD0300024B53F820002DF0DBBF00BF3B
S214006A90D8340020F8B504460B78424A43700D46B9
S214006AA042F82300404E2DF0EBFFFFF7CBFF626865
S214006AB0A3683E483E49D6641165D4655065C3E96F
S214006AC01410DE64DC654FF09873022663610123C0
S214006AD004F10C01E16137491032216204F10D0125
S214006AE0A16235492376E16204F10E016163334900
S214006AF084F82430A16304F10F012164304984F83E
S214006B003030616404F11001E1642E4984F83C30B1
S214006B1084F84830216584F85460A265E879A9684D
S214006B2000EB400201EB820704F1140CC7F804C026
S214006B304FF4817C244F41F82270C218D2B202EB87
S214006B40420241F822C001EB820700227A601F4A07
S214006B5084F8703022661E4A84F88830A2661D4A81
S214006B601D4BE2661D4AC4F88C3062671C4A8319C6
S214006B70A26704F15C02C4F88020DBB2194A03EB7A
S214006B804303C4F8842084F8646084F87C6001EBD6
S214006B90830260345460144A033041F82320E871BD
S214006BA0F8BD00BFD8340020A5690000074A0300DE
S214006BB0DD69000001002001020010010300300121
S214006BC0040030010500210101FC01064A002100F5
S214006BD03C930400510010003E9304003F930400D1
S214006BE0550021006F0018001200010470B50D4614
S214006BF00646144613460A460146164813F0DAF8C7
S214006C0025B92046BDE87040FFF71CBB072D05D10F
S214006C1021463046BDE8704000F000BB4FF6014309
S214006C209D4205D121463046BDE87040FFF72ABF99
S214006C30062D05D121463046BDE8704000F0A2B8CA
S214006C40B5F5817F05D121463046BDE87040FFF797
S214006C5059BD70BDC7FD03000148FFF737BA00BF36
S214006C60ED6B00004FF4C01330B5036001230371D1
S214006C70074B8C688360CA7902EB420304EB8305FA
S214006C806860044844F82300531CCB7130BD00BF35
S214006C90409304000400010138B50024044D55F863
S214006CA0040B08B12DF0FCFE01340A2CF7D138BDD8
S214006CB000350020042908B50AD172B16BB11378EB
S214006CC01BB92DF018FF002008BD2DF00AFFFAE7CB
S214006CD0034813F06FF80120F6E70320F4E700BF3F
S214006CE0FAFD030010B4054C114654F820001A466D
S214006CF0BDF804305DF8044BFFF7DCBF003500201C
S214006D000229024608B50ED004D839B910462DF02F
S214006D10F2FE06E04029F9D0412907D110462DF0B1
S214006D20E0FE002008BD2DF0F0FEFAE7024813F062
S214006D3041F80120F6E700BF1AFE030010B4054C28
S214006D40114654F820001A46BDF804305DF8044B8E
S214006D50FFF7D6BF00350020426B094B52791A70F8
S214006D6082785A70C2789A70826B12B190F83C2082
S214006D70DA70007804210930014AC0B2FFF740B843
S214006D80255F0020024B53F820002DF0DABE00BF2E
S214006D900035002038B504460078084D09302A46EC
S214006DA00421C0B2FFF71CF830B96B78A370AB783B
S214006DB0E370EB7884F83C3038BD00BF255F0020D8
S214006DC038B504460078114D09302A460421C0B271
S214006DD0FFF706F8C8B9A3782A78022B0CD004D897
S214006DE063B920462DF087FE01E0FF2B0AD020462F
S214006DF0BDE838402DF054BE002AF2D120462DF0D2
S214006E0070FEF4E7002AF9D1EBE738BD255F0020D5
S214006E10F8B504460B78284A0D4642F8230043701E
S214006E20FFF7B8FF636B254A5C631A632046FFF7DB
S214006E30C7FF20462DF034FE4FF480136360012315
S214006E40626BA66B0532E2601D4A23722261A21CA9
S214006E502375A26166B11B4A84F82030E261E21C09
S214006E606262194A84F82C3004F13C03A262236360
S214006E700627EA79A96802EB4203002E21F8237060
S214006E8001EB83000CBF02230423C370012383702D
S214006E900E4B04348360531C4460DBB20C4C03EB93
S214006EA0430341F8234001EB830000234360094B72
S214006EB002328360EA71F8BD003500201F4B0300E4
S214006EC00340300101FF300102FF10013D6D00005C
S214006ED008000100E56C000028B1034B1B788342D4
S214006EE034BF0020012070470A5F002070B50025DF
S214006EF00A4C0B4E3378AB4200DC70BDD4F8A420AD
S214006F0042B123791BB16079FFF7E6FF10B910464E
S214006F102DF030FA0135A834ECE700BF981E0020AB
S214006F200B5F002008B5427901461046FFF7D4FFF4
S214006F30A8B1CB780A48013A042B00EB82100ED891
S214006F40012B08D81BB9BDE808402DF0CABDBDE826
S214006F5008402DF0D0BDBDE808402DF0D6BD08BDD8
S214006F60981D002008B5427901461046FFF7B4FF89
S214006F70A8B1CB780A48013A042B00EB82100ED851
S214006F80012B08D81BB9BDE808402DF0B4BDBDE8FC
S214006F9008402DF0A6BDBDE808402DF0B6BD08BDE2
S214006FA0981D002010B586B00446FFF7B1F80128FA
S214006FB030D1E278042A2DD8DFE802F01332340309
S214006FC0030061790846FFF787FF58B31648032A7F
S214006FD000EB811050F80C3C58791DD1003818BFD2
S214006FE0012063784FF480728DF804304FF482737A
S214006FF0ADF806300623ADF8083001238DF80B30C7
S21400700000238DF80A0001A8CDE903238DF814307B
S214007010FFF7B6F806B010BDB0FA80F04009E0E71A
S2140070200020DEE70220DCE7981D002010B586B0C1
S2140070300446FFF76DF8012830D1E278042A2DD8EF
S214007040DFE802F013133203030061790846FFF706
S21400705043FF48B31548032A00EB811050F80C3C58
S2140070605B791DD11A1E18BF012263788DF80A209D
S2140070708DF804304FF48273ADF806300623ADF871
S214007080083001234FF480728DF80B30002301A8DE
S214007090CDE903238DF81430FFF772F806B010BD63
S2140070A0B3FA83F25209E0E70222DEE7981D0020D9
S2140070B010B586B00446FFF72BF8012812D1637886
S2140070C0094A8DF804304FF48273ADF806304FF459
S2140070D08073CDE90223002301A804938DF81430B1
S2140070E0FFF74EF806B010BD0800070110B586B0D1
S2140070F00446FFF70DF8012820D16278104B8DF872
S21400710004204FF4827294F8A01094F8A1005970ED
S2140071101870ADF8062004934FF4807202230949D4
S21400712001A88DF81430CDE90212FFF729F894F87B
S214007130A130013B18BF012384F8A13006B010BD72
S214007140295F00200800050110B58378044603B3C4
S2140071500379022B0AD142791046FFF7BDFE28B10B
S2140071600C48013A00EB82102DF0CFFCA379022BDD
S21400717002D12046FFF716FF2046FFF7B7FF02238F
S2140071806078A4F86C305522BDE8104012212DF02E
S21400719037BA10BD981D00204388094A082113807D
S2140071A08388538083681B8A938090F8A0309371FD
S2140071B08379D37100780430C0B2FEF721BE00BFD9
S2140071C01E58002038B50D4604460178114812F0C6
S2140071D0F1FD4FF602739D420ED10F4B1B782BB973
S2140071E063712046BDE83840FFF7D6BF62790AB122
S2140071F09342F6D20123F3E7B5F57F4FF1D120464F
S2140072002DF01CFDA378022B0CBF01220022A368E0
S2140072109A70E6E736FE03000A5F0020024B53F83A
S2140072202000FFF7CFBF00BF2835002038B5044642
S2140072300078144D04302A460821C0B2FEF7D0FD6F
S21400724020B1BDE83840104812F0B4BD2B886380EA
S2140072506B88E978A380AA88A3681A82AB7984F839
S214007260A030EB79A371094B1B780BB9637138BD5D
S21400727009B19942FBD9064812F09CFD23780133E8
S214007280F4E700BF1E58002050FE03000A5F0020EF
S21400729079FE0300F8B504460B78474A0D4642F8D7
S2140072A023004370FFF7C2FFA268444BD465D36443
S2140072B0434B02265365434BA11C13654FF4401302
S2140072C0E36001236161E1623F4910322163226578
S2140072D0211D3E4AA1633E483E49626504F1A00274
S2140072E0A061E163E265E01C611D3B4A20626164C7
S2140072F03A483B492266A21D2374237784F8283037
S21400730084F8343084F84030A16484F84C6084F803
S214007310583084F864306062A266E879AA6800EBA8
S214007320400102EB810704F10C0CC7F804C04FF0D3
S214007330060C2C4F42F82170C118C9B201EB41016E
S21400734042F821C002EB810700217960264F84F8BD
S21400735080302767254F84F89830A767244F254B41
S214007360E767254F84F8746084F88C60C4F89C3016
S21400737004F16C06831CC4F88470C4F890601F4F38
S2140073801F4EDBB203EB4303C4F89460C4F8887066
S21400739002EB83067034746008261A4C42F82340C9
S2140073A0C31CDBB203EB430302EB8304043042F856
S2140073B023606160E871F8BD28350020934B030018
S2140073C0DD4B03004971000001FF300104FF20017E
S2140073D01000300102FF200105FF300100FF3001E0
S2140073E003FF2101070001084A0021004293040020
S2140073F051001000449304004593040055002100FA
S2140074006F0018001200010400239B6AB3F5804F3A
S21400741003D21968064A914203D0002303708360A2
S2140074207047012202709A689B694260F7E700BFC6
S21400743007B0CD5E024B034A1A602FF023B800BF98
S2140074400000002002020FF073B53F4B04461A7886
S2140074501AB102221A7002B070BDCDE900220028CF
S214007460F9D001261E7037F01DFF384D384B1860D6
S21400747017F082FA2B785BB902F0F2F940B935487A
S2140074800823354A3549006801F038FE00B92E70E9
S214007490334B5A68E260334A9A601A6E22605A6E1C
S2140074A06260D3F87021A2601B6E5C042CD52E4A55
S2140074B0D368D807FCD42D4B1A68531C29D04FF438
S2140074C0801393402A4A13660423294C4FF08042C7
S2140074D023664FF480632366102323664FF400531D
S2140074E06846236601A9226663662DF0BFFB009BF3
S2140074F02366019B63662B78002BACD0164B1A686C
S21400750022665B686366A6E71A4AD368D907FCD486
S214007510D1E7194B1B78002BD6D1184B5A68144B61
S21400752012B94FF480121A66154A526812B94FF40F
S21400753000121A66134B5B68002BC5D14FF480020D
S2140075400B4B1A66C0E700BF2C5F00202D5F0020A3
S2140075506035002074690020643500200071080042
S2140075600080004455CEAC00000004404069002076
S21400757000900044000004502B5F0020008005505F
S21400758000C005500000065038B5224D04462B7842
S214007590012B02D001232B7038BD0028FCD02DF023
S2140075A08AFB013009D02DF086FB40F20113984289
S2140075B003D0194AD368DB07FCD42268174B1A6637
S2140075C062685A66A268C3F87021E268D40744BFAE
S2140075D000229A60124B1A68013213D1114A1278AF
S2140075E082B911494968C80748BF1A600F4A5268ED
S2140075F0D10744BF01221A600D4A5268D20744BF21
S21400760002221A6017F0C0F90A4B186837F045FED8
S2140076100023C0E72C5F00200000044000800044E8
S214007620406900202B5F00200080055000C00550F8
S214007630000006506035002070B50024A36AB3F53C
S214007640804F23D21A68134B9A421FD1124E3378BA
S21400765013F0FD0518D14FF480341048FFF7F4FE00
S214007660032004F04FFC0E4B0320DC6004F02EFCDD
S2140076700C4B1C61AB6ADB69984704460748FFF76A
S21400768083FF0CB901233370204670BD4FF481741C
S214007690FAE700BF07B0CD5E2B5F00205035002014
S2140076A000A000440090004413B5204B1B7803B99B
S2140076B0FEE700231E4CCDE900336A4608231D4929
S2140076C0206801F01BFDF8B91B4AD2F84031D2F809
S2140076D040211F2B4FF0010311D9203A9340019A05
S2140076E01A43019208236A461249206801F08EFE6A
S2140076F0124B134A1A602EF0C5FE02B010BD93401E
S214007700009A1A430092EDE72D28F1D10A4AD2F8E2
S2140077104031D2F840211F2B4FF0010385BF203A9D
S21400772093409340019398BF0093DBE72C5F0020C3
S21400773074690020007108000080004400000020EA
S2140077400B020FF038B50025AB6A0446B3F5804F40
S21400775010D21B6BB3F5804F0CD20748FFF774FEB0
S214007760AB6A20461B6B5B689847BDE8384002480A
S214007770FFF70ABF38BD00BF6C35002013B50024E4
S214007780A36A0190B3F5804F13D21B6BB3F5804FFD
S2140077900FD20948FFF758FEA36A01211B6B01A808
S2140077A09B69984704460448FFF7EEFE204602B061
S2140077B010BD4FF48174F9E76C35002070B50026D3
S2140077C0B36A0446B3F5804F0D4612D21B6BB3F571
S2140077D0804F0ED20848FFF737FEB36A20461B6B71
S2140077E029469B69984704460348FFF7CDFE204686
S2140077F070BD4FF48174FAE76C35002070B5002632
S214007800B36A0446B3F5804F0D4612D21B6BB3F530
S214007810804F0ED20848FFF717FEB36A20461B6B50
S2140078202946DB69984704460348FFF7ADFE204625
S21400783070BD4FF48174FAE76C350020F8B5002768
S214007840BB6A0446B3F5804F0D46164611D21B6B35
S2140078507BB10948FFF7F8FDBB6A20461B6B324632
S21400786029465B6A984704460348FFF78DFE204684
S214007870F8BD4FF40174FAE76C35002070B50026A9
S214007880B36A0446B3F5804F0D4612D21B6BB3F5B0
S214007890804F0ED20848FFF7D7FDB36A20461B6B11
S2140078A029469B6A984704460348FFF76DFE204624
S2140078B070BD4FF40174FAE76C350020F0B5002770
S2140078C0BB6A0446B3F5804F0D461646ADF5337DCC
S2140078D020D21B6BB3F5804F1CD21048FFF7B4FDC7
S2140078E0BB6A20461B6B40F2C1225B6A01A998471F
S2140078F0044630B10948FFF747FE20460DF5337DB4
S214007900F0BD836A32461B6B2946DB6A01A898479E
S2140079100446EFE74FF40174EFE700BF6C35002034
S21400792010B50024A36AB3F5804F10D21B6BB3F5D5
S214007930804F0CD20748FFF787FDA36A1B6B1B6BB3
S214007940984704460348FFF71FFE204610BD012453
S214007950FBE700BF6C350020F0B58FB0044601A8E9
S2140079600E461546FFF7EEFE9DF80C30012B12D1A1
S214007970B5F5402F27D8B4F5402F24D86319B3F5B2
S214007980402F20D821462A46304613F0B5FC002466
S21400799020460FB0F0BD0027BB6AB3F5804F15D266
S2140079A01B6BB3F5804F11D20A48FFF74DFDBB6A3B
S2140079B02A461B6B314620465B6B984704460548B3
S2140079C0FFF7E2FDE4E740F20244E1E740F201148B
S2140079D0DEE700BF6C350020F0B58FB0044601A886
S2140079E00E461546FFF7AEFE9DF80C30012B1FD154
S2140079F0B5F5402F06D8B4F5402F03D86319B3F574
S214007A00402F13D940F2024420460FB0F0BDE25892
S214007A10013225D104339D42F9D82A463146204604
S214007A202DF079F90028EDD00024EDE70023F2E7E9
S214007A300027BB6AB3F5804F15D21B6BB3F5804F9A
S214007A4011D20A48FFF700FDBB6A2A461B6B314677
S214007A5020469B6B984704460448FFF795FDD3E7FE
S214007A6040F20344D0E740F20114CDE76C35002025
S214007A7070B58EB0044601A80D46FFF763FE9DF86C
S214007A800C30012B22D144EA0503C3F30C03002B70
S214007A9033D1B5F5402F04D940F2024420460EB04B
S214007AA070BDB4F5402FF7D82544B5F5402FF3D870
S214007AB0204604F500542DF027F9AC4202D00028E9
S214007AC0F6D1E9E70028E7D00024E7E70026B36A06
S214007AD0B3F5804F14D21B6BB3F5804F10D20A4813
S214007AE0FFF7B2FCB36A29461B6B2046DB6B984750
S214007AF004460548FFF748FDD0E740F20444CDE7CA
S214007B0040F20114CAE700BF6C350020BFF34F8F68
S214007B100549064BCA6802F4E0621343CB60BFF324
S214007B204F8F00BFFDE700BF00ED00E00400FA0540
S214007B3070B5D0B1C9B10E4E431E013913F8014FCE
S214007B402046325D02F00302012A11F8012F08BF19
S214007B5004F12000B55C05F00305012D08BF2032B6
S214007B60801A01D1002CE9D170BD0120FCE700BFCE
S214007B70A1BA04000348044A0449121A92102DF0D0
S214007B8016B900BF34410000D042000070660020E5
S214007B9008B5154B83F30A8800F030F8FFF7EAFFC4
S214007BA0124B13498B4212D30020124B12498B42C0
S214007BB018D3FDF797F8186850F82240586840F830
S214007BC02240013298688242F5D30C33EAE700225D
S214007BD0F8E71C6844F8220001325C68A242F8D339
S214007BE00833E4E70022F8E70800002060DF04001E
S214007BF06CDF04006CDF04006CDF0400124B134AD9
S214007C0070B59A60D3F88820114D42F47002C3F81C
S214007C1088206FF0010205F50054226641F2FF72DB
S214007C2062660222C3F8D020BFF34F8FBFF36F8F78
S214007C304FF44036032004F065F90320E66004F0B4
S214007C4045F92E6170BD00BF00ED00E00040000069
S214007C5000800044014B1860704700BF4869002050
S214007C60054B1860054B1B6F03F00703032B01D170
S214007C7035F0CABB704700BF506900200080005036
S214007C802DE9F04104464FF001080C250D4E0CB9C5
S214007C90BDE8F08194FAA4F0B0FA80F00F2808FA54
S214007CA000F2C8BF103824EA0204CABF05FB00620F
S214007CB005FB0062B4325768002FE8D09168C0B266
S214007CC0B847E4E77C35002008B50C4837F088FB59
S214007CD0192004F009F928B1192004F013F9192025
S214007CE004F0F4F81A2004F0FFF828B11A2004F083
S214007CF009F91A2004F0EAF8002008BDA895040047
S214007D002DE9F0410E461746054618B30F2923D82D
S214007D100378DBB1013BDBB2022B19D8104AD35CE7
S214007D206A78D340DB0717D50E4BD3F81043ACB9AF
S214007D3037F0B8FA80463A462846314602F042FE08
S214007D40404637F0AAFA2046BDE8F0817F23E7E7F1
S214007D500023E5E72224F6E72124F4E70224F2E7ED
S214007D609893040000C0035010B5044610B303787F
S214007D70E3B1013BDBB2022B1AD8104AD35C62781F
S214007D80D340DB0718D537F08DFA012261782378C7
S214007D908A4030214B4341F2100103F1A04303F522
S214007DA070335A5037F079FA002010BD7F23E6E78B
S214007DB00023E4E72220F8E72120F6E79893040062
S214007DC010B5044610B30378E3B1013BDBB2022BD7
S214007DD01AD8104AD35C6278D340DB0718D537F040
S214007DE061FA0122617823788A4030214B4342F2BF
S214007DF0100103F1A04303F570335A5037F04DFAE3
S214007E00002010BD7F23E6E70023E4E72220F8E702
S214007E102120F6E79893040038B50D46044618B3BB
S214007E2011B30378E3B1013BDBB2022B1AD8104A38
S214007E30D35C6278D340DB0718D537F033FA3022AC
S214007E402378534303F1A04303F570335B696278EC
S214007E50D34003F001032B7037F01FFA002038BD23
S214007E607F23E6E70023E4E72220F8E72120F6E771
S214007E70989304002DE9F0410D46164698460446B0
S214007E8000284FD000294DD00178002940D04B1E45
S214007E90DBB2022B3ED8254AD25C6378DA40D207A2
S214007EA001D4FF2940D1022E01D9042E3CD137F04F
S214007EB0F9F923780746FF2B05D032462046296875
S214007EC002F0C6FD28602B68013309D12378FF2B0A
S214007ED006D1174B6078D3F824142DF043FD2860A4
S214007EE029684B1C18D00C23124A03FB0122069B60
S214007EF0C2F8048093602378FF2B04D001230E4A37
S214007F008B40C2F82434384637F0C7F9002007E023
S214007F107F22C2E70022C0E7384637F0BEF92D20A0
S214007F20BDE8F0812220FBE72120F9E798930400C2
S214007F3000C003507C35002000D0035008B502F086
S214007F4037FD044B00F05530C3F82004BDE8084068
S214007F50FFF796BE00E0035008B502F029FD044B7B
S214007F6000F0AA30C3F82004BDE80840FFF788BE3A
S214007F7000E003502DE9F04F144605460E469B469A
S214007F80C36B87B001225B6902A960689847EB6BF8
S214007F9001225B6903A93046984702A82DF006FB2C
S214007FA0074648B10023A37563754FF0FF33A360FF
S214007FB0002007B0BDE8F08F03A82DF004FB0123D6
S214007FC0A375237E04EBC303DE611F846368B3429C
S214007FD00ED1206003A82DF018FB4FF0FF3320755C
S214007FE0A360237D043B022B26D80023A375DFE77E
S214007FF023681A1A53425341A37503A82DF005FBB4
S214008000237D834218BFA77503A82DF0E0FA074624
S21400801002A82DF0DCFA874218BF002303A818BF79
S214008020A3752DF0DCFA074602A82DF0D8FA874291
S2140080301CBF0023A375D4E703A82DF0C8FA80B1AF
S214008040EB6B022230465B6904A9984704A82DF022
S214008050CDFA0346207D032839D8DFE800F038380B
S214008060040903A8F3E7CC22237E04EBC3031A8497
S21400807001F06EFC109B187003A8277E2DF09BFA6B
S21400808004EBC70787F82200237E03A804EBC3038C
S214008090B3F8209093F822702DF099FA804603A842
S2140080A02DF09DFA8246B8F1000F15D0EB6B022238
S2140080B030465B6904A9984704A82DF05CFA607501
S2140080C0637D6BB90023A3754FF0000838E0227E6D
S2140080D004EBC2021384CBE703A82DF037FAEEE7D1
S2140080E094F81680B8F1000FEED0B9F1000F09D160
S2140080F0DFB10123E375637E002B4FD1012F42D100
S214008100677614E06B6C06EB0A015A4286EA0100B9
S21400811010421CBF0022A2755A1E0A409B1A99459F
S214008120D0D8A37D002BE3D1CEE7E37D43B94FF053
S21400813000084B465246314628462CF082FFA06087
S214008140A27D12B123694B4423611A49237E097824
S21400815099422AD901332376BBF1000F27D032B3D8
S214008160E37D23B3B8F1000F21D1032F1FD0A16800
S2140081704B1C1CD0109B2246009328460123FFF779
S214008180F9FEA07513E095F8343063B9EB6A013355
S214008190CFD1032FCDD10123A376C8E7012FCFD0AF
S2140081A0032FC4D1F7E79846C3E70023A375A07D45
S2140081B0FFE600BFBC9304002DE9F04F0E4698463C
S2140081C000238BB004464FF0FF31104617468DF85B
S2140081D0133001F0A7FBB6F5801F20D2314605AA62
S2140081E004F108002DF034F9451C014603D1237C28
S2140081F0BBB92D2010E0384601F094FB0122394629
S21400820020460DF113032CF06EFF0028EFD09DF8EA
S214008210133088F8003000200BB0BDE8F08FB01C9B
S214008220E5D1E56A691C36D12046616A2CF04FFE1E
S2140082300546B31C18BF0123DFF8CC900193636A90
S214008240626C0293236805A902FB053AE36B0522DC
S2140082505B695046984705A82DF043FA2DF066FA5C
S21400826050462DF06EFA4FF0000B824601464B1C2E
S21400827005D0636C81EA0A025B42134211D029469C
S21400828020462CF024FE029BAB422CD0BBF1000F04
S2140082902CD10546D3E72368ED1A636CB5FBF3F5DE
S2140082A0C7E7484601F03EFB0DF11303494620465A
S2140082B0019A2CF018FF034690B1B21C03D0D9F8EF
S2140082C00020B2420CD19DF8132003930D4B88F882
S2140082D0002049461A68384613F00EF8039B9B4662
S2140082E0D9F80810C3E7BBF1000F82D0B6F5801F9F
S2140082F091D2314698F800307A6804F1080001F00F
S2140083003FFA88E7B8930400583D00202DE9F34172
S2140083100446174698460E46184D816AE36A8B4215
S21400832001D04B1C02D102B0BDE8F081284601F016
S214008330F9FA0122294620460DF107032CF0D3FE58
S21400834038B14346294620469DF80720B8470028FE
S214008350E9D0A9684A1C04D1696820462CF044FE7E
S2140083600146012EDAD16B6881EA0302636C5B4238
S2140083701A4218BF4FF0FF31D0E700BF2C3D002057
S2140083802DE9F04F4FF0FF334FF6FF7200250446FD
S21400839000F10806C0E909238BB0C36205620563D5
S2140083A0304688462DF025F820462CF060FD60BB50
S2140083B0204641462CF0DBFD20462CF058FD60BBE5
S2140083C05E200BB0BDE8F08F2368E26B606C5769E7
S2140083D000FB0530052205A9B84705A82DF081F950
S2140083E0012807460CD1294620462CF091FD012F86
S2140083F0024600D10132294620462CF057FD03E004
S2140084002DF099F90028EED10135E3699D42DBD3C2
S21400841020462CF02CFD0028CAD000254FF0FF394E
S2140084204FF6FF73CA46A846C4E90853E369984561
S2140084300AD3A5EB0905012D2CD84FF6FF72636A07
S21400844093423CD16720BCE72368E26B606C5769B7
S21400845000FB0830052205A9B84705A82DF041F90C
S214008460834605A82DF014F9074658462DF05EF908
S21400847068B1574538BFC4F82480B94528BFB94607
S214008480BD4238BF3D46BA46236A0133236208F12F
S2140084900108CBE74FF6FF7300256362E3699D4250
S2140084A0CBD2676C2068E36B052207FB05005B698F
S2140084B005A9984705A82DF0EBF80135EEE7E26B25
S2140084C0676C2068694607FB030055690522A847C4
S2140084D068462DF0DDF8626A2368606C4B4D00FB41
S2140084E002302DF02EF94FF0FF33A062E3622A46E9
S2140084F06FF00101204605ABFFF75EFE002846D16F
S214008500AD6829462046E5622CF08DFC206320B934
S2140085102046E16A2CF068FDE062294620462CF0F1
S21400852063FD0546A36A9D4233D120462CF04EFCDF
S21400853000278046B946E36999453CD3B84559D9E2
S2140085402046616A2CF0C3FC0026054604F1400A6A
S214008550B74212D8626C2368694602FB0539E36BA2
S21400856005225B694846984768462DF091F85346C1
S21400857002464946E06B2DF0E6F8294620462CF0E8
S214008580A6FC0136B0450546E2D1642019E7A56A87
S214008590B7E7294620462CF046FC236B29460344C1
S2140085A00746236320462CF01FFD0546002FB9D151
S2140085B0C4E90B07B6E7636C2568052203FB09557B
S2140085C0E36B05A95B692846984705A82DF089F84E
S2140085D02DF0ACF858B128462DF0B3F801462046E9
S2140085E02CF021FC636C143B984208BF013709F15C
S2140085F00109A0E730462CF0FCFE00232046194671
S214008600034AFFF783FE0020DBE600BF843D002020
S214008610D55003002DE9F041036B9046826B076846
S2140086209A4288BF8363426C436A90B002FB03772A
S214008630C36B0E46052201A95B6904463846984777
S21400864001A82DF04EF801280146307057D0656C11
S214008650E26B2368606AD2F814C005FB003005227E
S21400866006A9E04706A82DF03CF801284FF00005C3
S21400867023D0D4E90A3201219342CDE90B458DF887
S21400868034800E958DF83C102AD1194620462CF0E1
S214008690ABFC236B626C14339B1AE06223630C9B67
S2140086A053B99DF83C303BB1626A616C2368E06B5D
S2140086B001FB02312CF0CDFF0C9DE36B05225B69BC
S2140086C001A93846984701A82DF00BF830702846C7
S2140086D0236BA26B9A4288BFA36310B0BDE8F081FB
S2140086E0237C33B91C490BAA04F1080001F096F864
S2140086F0D5E72046194A0BABFFF708FECFE7237CE9
S21400870023BB2246164904F1080001F087F8616A87
S21400871020462CF0FDFB616A421C20462CF0C6FB6E
S214008720054620B9236B626C1344143B2363204632
S214008730A16A2CF059FC2368A062C01A636CB0FBD7
S214008740F3F0606220462CF092FCB6E70023204649
S214008750044AFFF7DBFDDAE7B98E0000358E00002D
S2140087606F5103000B51030073B50D46D11E4A42EC
S2140087701C461B7E4A419A4226D1296823689942A4
S21400878022D3636899421FD8114E0DF10703324673
S214008790FFF712FDC0B972686B689A4214D19DF853
S2140087A00730DA1E53425341227E93420CD163694E
S2140087B001336361D4E90323934205D22968A26892
S2140087C042F8231001332361012002B070BD00BFC0
S2140087D0843D00202DE9F04F9B4689B09DF8483037
S2140087E09046514A0193136907465B450D46C0F013
S2140087F09580D94653680093B9F1000F7BD0FB6B88
S21400880001225B6905A90098984705A82CF0DBFEB5
S214008810454B1B68984240F0848005A82CF0DFFE8C
S2140088200428064615D105A82CF0E0FE009B044659
S2140088301E44019B002B3ED1804512D91C46A8EB56
S2140088400008384600992CF0CFFBA9EB04090090ED
S214008850D2E7FB6B02225B69009806A9984706A838
S214008860E2E7A0EB08045C4528BF5C46032C4644C0
S214008870ABEB040B1DD9FB6B294630465B69A2089F
S214008880984724F0030304F0030A1E441D44DDF851
S2140088900480BAF1000FD4D0FB6B012206A9304643
S2140088A05B6998475246284606A912F025FD5544AE
S2140088B0C7E7A246EBE7824600F0030302932B18B5
S2140088C003930644039BA6EB0A00A3EB0A05029B50
S2140088D09A4514D1BAF1000FB3D0FB6B012206A95A
S2140088E05B6998475246284606A912F0C1FE002842
S2140088F0DDD04FF03609484609B0BDE8F08FFB6B77
S214008900012206A95B6998470422284606A912F0A8
S214008910AFFE0028EDD1AAF1040AD3E74FF06309B1
S214008920E9E74FF06F09E6E7B03D00202DE9F0419A
S2140089300F4616469846044688B060B390F8345002
S214008940FDB101212CF088FA00210E9BCDE905111E
S214008950CDE902379DF83C30CDF804808DF81C3008
S214008960237C04968BB90D4901AA04F1080000F097
S21400897055FFDDE90553E06B002E08BF1D462CF0C1
S21400898004FC284608B0BDE8F0812046044A01AB46
S214008990FFF7BCFCEDE70546F3E700BF39510300DF
S2140089A0698700007FB590F84260044601920DF199
S2140089B00B030A46304611492CF0EFFB012E054604
S2140089C0E36B17D132465B6903A998479DF80B10F5
S2140089D0039B019A59B19BB243EA024301222846FF
S2140089E00393E36B03A99B69984704B070BD62F3D9
S2140089F00F03F3E701229B6901A9F5E7B03D0020CC
S214008A002DE9F04F99B00E460D920A69416C0B9312
S214008A101439D31DB3FBF1F3013302EBC302036B2E
S214008A2004469342C0F001820023DFF804940893C2
S214008A30E36A48461946059300F074FFD6E9033703
S214008A4007930B9B022B4DD1CC2F40F0D7810D9B6B
S214008A503BB1314620462CF0F6FB656C14900120A5
S214008A6044E00120079B656C1B68149300F001002E
S214008A7000280CBF04230823782F0E9349D8059AA4
S214008A806B1E1340ED1A3B1D9D423CD2002F3DD07D
S214008A90082D3ED80023042506934FF0040A3368B9
S214008AA006990B98C9F80030C9F810702CF0B1FD83
S214008AB04FEA9A030F93059B89F81400039300234B
S214008AC009930C9304930A93616C039B4A1E1A4005
S214008AD08B1A27B35544AB4223D8236B5B1A134437
S214008AE023632FE1782F656CB9D8F07D0D9B002BA2
S214008AF0BCD0E36B01225B69706816A9984716A87C
S214008B002CF065FDB4E700250695C6E70425069714
S214008B10C3E7012300254FF0080A0693BFE7534535
S214008B20DBD3A3EB0A029742039BB84628BF9046C6
S214008B309742534428D90122D9F8101089F81720F3
S214008B408F4226D10399C9F80410049299F8172089
S214008B500AB399F818100398CA1C09EBC2025060B1
S214008B6004980131A2F80880907289F81810B8F1BC
S214008B70000F07D00B9A022A40F08180099A72B142
S214008B80012209929B46ABE0049A002A18BF0322F2
S214008B90DBE70222D9E7039AC9F80420E7E70C9A34
S214008BA04244032AEED9E26B1846956914A90122BD
S214008BB00993A847099B05460028E1D03D2D40F0C3
S214008BC01E8104F1080303932368059A606CA2EBE8
S214008BD0030ABAFBF0FA00FB0A302CF0B2FDE16A99
S214008BE0804620462CF000FAA26A824200F00F81EE
S214008BF0626CD9F80830511E0B40216B2768891A21
S214008C000B442363089BE062DF1BB7FBF2F7BA4511
S214008C1040F0FA80059BB3EB080A12D0E36B4FEAEC
S214008C209A0241469B6998478346E36A059A5344ED
S214008C30E362236B03989B1A434423632CF0D9FB0F
S214008C40DA462368616CE06B01FB07312CF0EEFC22
S214008C5020462CF00CF920462CF009FA2063BAF1D5
S214008C60000F00F0D4803269616CD31D1439B3FB59
S214008C70F1F3013302EBC3029042A5D2BFE00D9A96
S214008C80002A77D1B8F1030F4FEA98026ED9E16B4C
S214008C9018468D6907991093A847109B0546C0B9DA
S214008CA018F0030515D0079A28F0030B02EB0B010A
S214008CB09B444FF0FF3215A815922A46109312F0E7
S214008CC01BFBE26B5846956915A90122A847054685
S214008CD0109B9B46079A42440792002D40F08B80DB
S214008CE0049B16A80193069B009399F8142043460C
S214008CF0316800F0CDFDE36B0F9A9B69039816A9C7
S214008D009847039A051E089B18BF134608934346C8
S214008D105246204603992CF094F9236B08F103027F
S214008D20A3EB0A0322F003029B1AC9F80800236388
S214008D30002D7FF443AF0C9BA7EB080743440C932E
S214008D40CDF80CB0204603992CF04EF90025039080
S214008D50002F7FF4B9AE364A3168936804F10800F4
S214008D60E36252680B9B00F00BFD49E09B464546CC
S214008D7007999EE79B4606F120021092F27D7068E6
S214008D80A2B1002296F818C00A99D5B2AC4511D9FE
S214008D90109D02F1010E35F832508D4228D90E98FA
S214008DA006EBC2020144D069084403E00E9A0A9911
S214008DB00A441044E26B15A9556901221193A8478D
S214008DC0159A0A9B1392E26B043395695846012262
S214008DD013A90A93A847119B054603EB0802A2EBCA
S214008DE00B02042A7FF679AF28B90BF1040BC5E70E
S214008DF07246491BC9E7CDF820B088E770252F4694
S214008E00384619B0BDE8F08F4FF0000A19E732690E
S214008E10616CD31D1439B3FBF1F3013302EBC302CB
S214008E20236B9342BFF404AEE9E71C27E8E700BFD4
S214008E30583D0020032A2DE9F34106460D46174605
S214008E401C4606D1237A012B23D0012002B0BDE8B0
S214008E50F081DFF86080096842460DF10703FFF7EE
S214008E60ABF960600028EDD19DF80720237A032A2D
S214008E70E8D0D8F804106A689142E3D1012B29693A
S214008E80D4F80CC007D172690CEB0103934202D9E7
S214008E902074207CDAE708316144E1603B46012219
S214008EA029463046FFF7ACFD60600028CAD0002097
S214008EB0CCE700BF843D00202DE9F341089C032A3F
S214008EC01746266806D1237A012B24D0012002B04B
S214008ED0BDE8F081DFF89080304642460DF107038A
S214008EE0FFF76AF960600028EDD12568D8F804001D
S214008EF0A96AD5F844C04840CCF100031840227A4D
S214008F00E1D1012A09D1E268D8F810301344726919
S214008F10934202D92074207CD9E72868EB6A1B1A92
S214008F20081AB3FBFCF3B0FBFCF083420BD1706C69
S214008F30F36A421E1340326B121A134428463363F8
S214008F402CF052F8E862D8F81020E3680832134490
S214008F50E36001223B4604492068FFF751FD60604C
S214008F600028B0D00020B2E7843D00202DE9F04173
S214008F700025604B0E46D3F8008004461D6018B9E5
S214008F8021252846BDE8F08190F8347007B30A68BA
S214008F9003689A4240F0A3804A6843689A4240F0C9
S214008FA09E808A6883689A4240F09980CA68C3683F
S214008FB09A4240F094800A6943699A4240F08F8052
S214008FC08A69C36B9A4240F08A804B698361D8E70E
S214008FD068223946856B11F0FFFFD6E90212336826
S214008FE004F1080023607368A563636033696361F6
S214008FF07369A3612CF00FFAB36904F14000E363D0
S2140090009B68984720B9676C17B16368B3FBF7F79E
S21400901094F84330E761002BB2D00023656C2366DA
S214009020002D64D0002F62D02368B3FBF5F205FB59
S2140090301233002B55D16668B6FBF5F305FB1363B8
S214009040002B4ED120462BF0DEFEA36904330344EA
S2140090509E4248D340F634726369CC3B934244D870
S214009060B5F5805F43D3032120462BF0F5FED4E907
S2140090700001E36B1B6898470546E36B0220DB683C
S2140090809847CDB941462046FFF77AF96428054649
S21400909004D141462046FFF773F90546666C5DB974
S2140090A0236A2046143E5E432BF0ADFEA3690433CC
S2140090B003449E4238BF5A25002D0CBF01230023CF
S2140090C084F8343007D1D4E900010B4A1368013321
S2140090D013602CF03AFAE06B2CF057F851E75D2558
S2140090E04FE759254DE75A254BE75F2549E75B25AE
S2140090F047E700BFE8360020E43600202DE9FF41B0
S2140091000C4616461F46054680B390F834307BB3AF
S214009110B1F5801F2ED2DFF8608001212BF09CFE77
S2140091202146424628460DF10F03FFF745F8044650
S21400913070B99DF80F30012B11D1D8F81030BB4212
S21400914012D10246009031462846FFF743FB0446FC
S214009150E86B2CF01AF8204604B0BDE8F081022B2C
S21400916014BF2D246024F3E76324F1E72124F2E7FB
S2140091701124F0E72924EEE7B03D00202DE9F04366
S21400918085B00C4617461E460546DDF8308098B377
S21400919090F8343093B3B1F5801F31D2DFF8649085
S2140091A001212BF059FE21464A4628460DF10F03B1
S2140091B0FFF702F8044688B99DF80F30012B14D14A
S2140091C0D9F8102006EB08039A4213D300904346C2
S2140091D0324639462846FFF7FDFA0446E86B2BF080
S2140091E0D4FF204605B0BDE8F083022B14BF2D2423
S2140091F06024F3E76324F1E72124F2E71124F0E783
S2140092002924EEE7B03D002073B50C461646054609
S21400921030B390F834302BB3B1F5801F24D201213F
S2140092202BF01AFE21462846104A0DF10703FEF7DA
S214009230C3FF044680B99DF80730032B0CD0022BE1
S2140092400CD1284609492BF0FEFF3060E86B2BF066
S2140092509CFF204602B070BD2D24F7E76124F5E799
S2140092602124F6E71124F4E72924F2E7B03D002094
S2140092702DE9F3411E4600230C461746054633608B
S21400928050B390F834304BB3B1F5801F28D2DFF8D6
S214009290548001212BF0E0FD2146424628460DF180
S2140092A00703FEF789FF0446A0B99DF80730032B95
S2140092B010D0022B03BF01233B600423D8F81030E4
S2140092C018BF38603360E86B2BF05FFF204602B0B3
S2140092D0BDE8F0812D24F6E72124F7E71124F5E711
S2140092E02924F3E7B03D002073B50446056B2BF048
S2140092F08AFD636E03449D422CBF002301238542F2
S21400930094BF00252D1A207C84F85030656584F8BB
S2140093105800A8B100230C4E1A461946204600965F
S2140093202CF055F8002305461A46194620460096A6
S2140093302CF056F8E3682844984294BF0020C01AE0
S214009340E06502B070BD00BFFFFF0F002DE9F347D8
S2140093501E4643690446B342884617469DF8289041
S2140093604ED300258DF8075020462BF04CFDD4F840
S21400937030A082450AD2236AB5EB430F06D20022FC
S21400938020460DF10701FFF745F9B8B39DF8073001
S214009390012B05D1002220460DF10701FFF73AF90F
S2140093A0B9F1030F06D0314620462BF01CFD256B85
S2140093B0854227D3144D4FF0FF31284600F0B2FA0D
S2140093C04B46294600222046C5E90376C5F80080AC
S2140093D0FFF716FB236E054663B12046FFF784FFB2
S2140093E094F8503013B994F858301BB1236E04F13A
S2140093F050009847284602B0BDE8F0870135B3E72D
S2140094006225F7E71C25F5E7843D00202DE9FF419E
S2140094100F4690461E46054698B390F8343093B3F0
S214009420B1F5801F31D21A4C02212BF015FD2246D1
S214009430394628460DF10F03FEF7BEFE024678B108
S214009440012342460093394633462846FFF77EFFFF
S2140094500446E86B2BF099FE204604B0BDE8F08188
S2140094609DF80F30012BEBD12169B142E8D1009372
S214009470414633462846FFF7ADF904460028DFD1BB
S214009480E7E72124E8E71124E6E72924E4E700BF1C
S214009490B03D00202DE9F04790F8423086B0012B11
S2140094A005460391A1EB020740F0AA80FF2F03D8E0
S2140094B01E464FF0640807E00226012B14BF4FF04B
S2140094C032084FF06408013600244FF6FF79DFF8C3
S2140094D044A195F84230012B14BF322364239C42EA
S2140094E002D35FFA88F40DE005AB224651462846C3
S2140094F02BF087FE95F84230012B059B34D14B4567
S2140095002DD1E4B295F84230012B14BF32226422EA
S214009510121BB24217D3012E39D10022012B059718
S2140095208DF8132027D1082205A90DF113002CF081
S21400953024F99DF81330059A42EA0322214628466C
S214009540FFF730FA40B10223324900932846CC2375
S214009550096803AAFFF7FAFE06B0BDE8F087DBB29B
S21400956003B902340134B4E7591CCAD09BB2002BAD
S214009570F8D10134F6E7102205A90DF113002CF0FE
S214009580FCF89DF81330059A42EA0342D6E7039AA0
S214009590012B059223D10823202205A90DF11300E3
S2140095A08DF813302CF0E9F89DF8132012022146AE
S2140095B02846FFF7F7F995F84230611C012BC9B22F
S2140095C01AD10028BFD12846BDF81420FFF7EAF9C3
S2140095D00028B8D10234BDF81620E1B2AFE7102358
S2140095E0202205A90DF113008DF813302CF0C5F8D4
S2140095F09DF813201204DAE70028A4D1059A9EE706
S214009600B7F5803F4FF00106BFF457AF4FF0320872
S2140096105AE700BFB03D002070B586B00E4605463E
S2140096200392A0B390F834309BB3B1F5801F32D2CA
S21400963002212BF011FC31462846184A0DF117037B
S214009640FEF7BAFD044618B99DF81730032B0ED165
S2140096500223314600932846CC2303AAFFF776FE62
S2140096600446E86B2BF091FD204606B070BD022B39
S2140096700BD10A4928462BF0E6FD039902468142A3
S214009680EFD02846FFF706FFEAE76124E9E7212442
S214009690EAE71124E8E72924E6E700BFB03D00200A
S2140096A0F7B50C461646054668B390F8343063B3F3
S2140096B0B1F5801F2BD202212BF0CEFB2146284687
S2140096C0144A0DF10703FEF777FDC0B99DF8073081
S2140096D0032B14D0022B14D10E4928462BF0B3FDD1
S2140096E0471C024639462846FFF7D4FE044606B114
S2140096F03760E86B2BF049FD204603B0F0BD2D2403
S214009700F7E76124F5E72124F6E71124F4E7292496
S214009710F2E700BFB03D002030B50C46054685B0E8
S21400972028B390F8343023B3B1F5801F23D202213A
S2140097302BF092FB0DF10F03214628460F4AFEF749
S2140097403BFD034688B99DF80F20032A0DD003225F
S2140097502146009202462846FFF7F8FD0446E86BCD
S2140097602BF013FD204605B030BD2D24F7E721244D
S214009770F8E71124F6E72924F4E700BFB03D0020FF
S2140097802DE9F043466886B3056898464FF0000C0E
S214009790A946AE4655F83C400CF1010CC4F313073D
S2140097A0013401D0B94217D0B4450EF1080EF1D1FC
S2140097B02F46002403E0B44207F1080712D055F8FC
S2140097C0343001340133F6D1C1F3130141EA0851B4
S2140097D0C7E90012BDE8F08341EA0851CEE900125D
S2140097E0BDE8F083B8F1030F03D101230372BDE88F
S2140097F0F083002303E0B34209F10809F5D055F8D9
S21400980033400133C4F30754032CF4D1C1F31303DC
S21400981043EA0853C9E90032BDE8F0832DE9F04178
S2140098200646406882B0B8B10F46904600243368BA
S21400983053F8345003EBC403C5F30752C5F31301C2
S214009840013506D05B683046CDF80080B84718B1C1
S214009850706801348442EAD302B0BDE8F08100BFEC
S214009860024B1968024B1868FFF780BB546900204A
S2140098707469002008B535F008FD014B186008BD76
S214009880DC3D0020014B186835F0FABCDC3D0020BA
S21400989073B504462248012A00EAC1119DF8185003
S2140098A023F07C4007D9961E012E28D9073303F0F3
S2140098B07F03194308E09DF81C300A43DB0603F0DB
